:020000040800F2
:1000000000000320B11700083D1700083F17000843
:1000100041170008431700084517000800000000BA
:10002000000000000000000000000000471700086A
:1000300049170008000000004B1700084D17000882
:10004000011800080118000801180008011800082C
:10005000011800080118000801180008011800081C
:10006000011800080118000801180008011800080C
:1000700001180008011800080118000801180008FC
:1000800001180008011800080118000801180008EC
:1000900001180008011800080118000801180008DC
:1000A00001180008011800080118000801180008CC
:1000B00001180008011800080118000801180008BC
:1000C00001180008011800080118000801180008AC
:1000D000011800080118000801180008011800089C
:1000E000011800080118000801180008011800088C
:1000F000011800080118000801180008011800087C
:10010000011800080118000801180008011800086B
:10011000011800080118000801180008011800085B
:10012000011800080118000801180008011800084B
:10013000011800080118000801180008011800083B
:10014000011800080118000801180008011800082B
:10015000011800080118000801180008011800081B
:10016000011800080118000801180008011800080B
:10017000011800080118000801180008000000001C
:1001800001180008011800080118000801180008EB
:1001900001180008011800080118000801180008DB
:0C01A000011800080118000801180008F0
:1001AC0010B5054C237833B9044B13B10448AFF3A5
:1001BC0000800123237010BD2000002000000000EF
:1001CC005C18000808B5034B1BB103490348AFF397
:1001DC00008008BD00000000240000205C1800080E
:1001EC0053B94AB9002908BF00281CBF4FF0FF3192
:1001FC004FF0FF3000F07AB9ADF1080C6DE904CE88
:10020C0000F006F8DDF804E0DDE9022304B07047E5
:10021C002DE9F0478C460D460446089E002B51D123
:10022C008A4217466DD9B2FA82FEBEF1000F0BD08E
:10023C00CEF1200C01FA0EF520FA0CFC02FA0EF7A6
:10024C004CEA050C00FA0EF44FEA174A250CBCFBDD
:10025C00FAF81FFA87F90AFB18CC45EA0C4508FB9B
:10026C0009F3AB420AD9ED1908F1FF3280F0238172
:10027C00AB4240F22081A8F102083D44ED1AA4B231
:10028C00B5FBFAF00AFB105544EA054400FB09F9EA
:10029C00A14509D9E41900F1FF3380F00A81A14589
:1002AC0040F2078102383C44A4EB090440EA0840C0
:1002BC000021002E61D024FA0EF400233460736008
:1002CC00BDE8F0878B4207D9002E54D0002186E878
:1002DC0021000846BDE8F087B3FA83F1002940F00D
:1002EC008E80AB4202D3824200F2FA80841A65EB14
:1002FC0003050120AC46002E3FD086E81010BDE867
:10030C00F08712B90127B7FBF2F7B7FA87FEBEF1F7
:10031C00000F34D1EB1B3A0C1FFA87FC0121B3FB05
:10032C00F2F8250C02FB183345EA03450CFB08F3E5
:10033C00AB4207D9ED1908F1FF3002D2AB4200F203
:10034C00D1808046ED1AA3B2B5FBF2F002FB10553A
:10035C0043EA05440CFB00FCA44507D9E41900F161
:10036C00FF3302D2A44500F2B8801846A4EB0C046B
:10037C0040EA08409DE731463046BDE8F087CEF1B3
:10038C00200405FA0EF307FA0EF720FA04F83A0CDB
:10039C0025FA04F448EA0308B4FBF2F14FEA1845D5
:1003AC0002FB11441FFA87FC45EA044501FB0CF3E0
:1003BC00AB4200FA0EF409D9ED1901F1FF3080F0CF
:1003CC008A80AB4240F2878002393D44EB1A1FFA17
:1003DC0088F5B3FBF2F002FB103345EA034500FB52
:1003EC000CF3AB4207D9ED1900F1FF386FD2AB42D9
:1003FC006DD902383D44EB1A40EA01418FE7C1F157
:10040C00200722FA07F88B4005FA01F448EA0303A7
:10041C0020FA07FE4FEA134CFD404EEA040EB5FBE2
:10042C00FCF94FEA1E440CFB19551FFA83F844EAF9
:10043C00054509FB08F4AC4202FA01F200FA01FA94
:10044C0008D9ED1809F1FF3043D2AC4241D9A9F1DA
:10045C0002091D442D1B1FFA8EFEB5FBFCF00CFB94
:10046C0010554EEA054400FB08F8A04507D9E418DE
:10047C0000F1FF3529D2A04527D902381C4440EAA7
:10048C000940A4EB0804A0FB02894C45C6464D4626
:10049C0015D312D056B1BAEB0E0364EB050404FA73
:1004AC0007F7CB401F43CC40376074600021BDE898
:1004BC00F0871846F8E69046E0E6C245EAD2B8EB7B
:1004CC00020E69EB03050138E4E72846D7E74046FE
:1004DC0091E78146BEE7014678E702383C4445E7A0
:1004EC00084608E7A8F102083D442BE7704700BF17
:1004FC0038B50E4A0E4B054618784FF47A73B3FB99
:10050C00F0F31068B0FBF3F000F09CF8044658B917
:10051C000F2D09D8024629464FF0FF3000F05EF847
:10052C00044B20461D6038BD012038BD080000205A
:10053C00000000200400002008B50B4B1A6842F4A0
:10054C0000721A601A6842F480621A601A6842F4E7
:10055C0080721A60032000F02FF80020FFF7C8FF0C
:10056C0001F094F8002008BD003C0240034A044B03
:10057C0011681B780B441360704700BF4C000020BF
:10058C0000000020014B1868704700BF4C00002091
:10059C0038B50446FFF7F6FF631C1CBF054B1B78F0
:1005AC00054618BFE418FFF7EDFF401B8442FAD84C
:1005BC0038BD00BF00000020074AD36823F4E06375
:1005CC001B041B0C43F0BF63000243F4003300F424
:1005DC00E0600343D360704700ED00E0174B30B58B
:1005EC00DC68C4F30224C4F10703251D042B28BFC7
:1005FC000423062D4FF0010505FA03F303F1FF3335
:10060C008CBF033C00241940A14005FA04F4013CC2
:10061C002240002842EA01024FEA0212AFBF00F169
:10062C00604000F00F00064BD2B2A5BF00F5614050
:10063C00D2B21A5480F8002330BD00BF00ED00E0A8
:10064C0014ED00E00138B0F1807F0AD2064B074A66
:10065C005860F02182F823100020072298601A605D
:10066C0070470120704700BF10E000E000ED00E093
:10067C002DE9F04F85B00B68DFF8C4816E4ADFF8C6
:10068C00C491019300234FF0010E019C0EFA03FE5E
:10069C000EEA0406B64540F0B6804C6824F010070C
:1006AC00022F16D14FEAD30A00EB8A0A03F0070B8C
:1006BC00DAF820504FEA8B0B4FF00F0C0CFA0BFCB6
:1006CC0025EA0C0C0D6905FA0BF545EA0C05CAF880
:1006DC0020504FEA430A0325D0F800B005FA0AF57A
:1006EC00ED4304F0030C0BEA050B0CFA0AFC013F7A
:1006FC004CEA0B0C012FC0F800C011D8876807EA30
:10070C00050BCF6807FA0AFC4CEA0B0787604768B1
:10071C0027EA0E0EC4F300179F4047EA0E07476006
:10072C00C7683D408F6807FA0AF73D43C560E5008E
:10073C0069D54FF0000BCDF80CB0D8F844703F4D94
:10074C0047F48047C8F84470D8F8447007F48047E1
:10075C000397039F23F0030707F1804707F59C37A6
:10076C0003F0030CD7F808A04FEA8C0C4FF00F0ED7
:10077C000EFA0CFEA8422AEA0E0E4BD005F5806547
:10078C00A84249D005F58065A84247D005F580659B
:10079C00A84245D005F58065A84243D0484543D0D2
:1007AC0005F50065A84241D005F58065A8423FD00B
:1007BC0005F58065A8423DD005F58065A84214BFBB
:1007CC000A25092505FA0CF545EA0E05BD601568E4
:1007DC00F74314F4803F0CBF3D403543156055681A
:1007EC0014F4003F0CBF3D4035435560956814F43C
:1007FC00801F0CBF3D4035439560D568A40254BFA3
:10080C003D403543D5600133102B7FF43CAF05B030
:10081C00BDE8F08F5D46D5E70125D3E70225D1E78A
:10082C000325CFE70425CDE70525CBE70625C9E74A
:10083C000725C7E70825C5E7003C0140000002403A
:10084C0000380240001402400AB18161704709046B
:10085C00FBE7000037B500230193184B184C1A6CBA
:10086C0042F080521A641B6C03F080530193019B7D
:10087C00144B01221A60FFF785FE05466368DA0304
:10088C000BD5114B0E4C01221A60FFF77BFE05466F
:10089C0063689B030AD5002006E0FFF773FE401B3C
:1008AC00B0F57A7FEAD9032003B030BDFFF76AFEBA
:1008BC00401BB0F57A7FEBD9F5E700BF003802405A
:1008CC000070004040000E4244000E422DE9F341FE
:1008DC00044618B9012002B0BDE8F0810368DD07B9
:1008EC0010D42368980758D423681A0700F19A800B
:1008FC0023685B0700F1B880A269002A40F01981D7
:10090C000020E8E7A64B9A6802F00C02042A07D0F4
:10091C009A6802F00C02082A0AD15B68590207D5C2
:10092C009F4B1B689A03DCD56368002BD9D1D1E7A8
:10093C0063689B4DB3F5803F11D12B6843F4803332
:10094C002B60FFF71FFE964D06462B689B03C8D401
:10095C00FFF718FE801B6428F7D90320BBE7B3F51B
:10096C00A02F04D12B6843F480232B60E5E72A6881
:10097C0022F480322A602A6822F480222A60002B1A
:10098C00DFD1FFF7FFFD06462B689F03A9D5FFF7C4
:10099C00F9FD801B6428F7D9DFE7814B9A6812F0C8
:1009AC000C0F07D09A6802F00C02082A11D15B6870
:1009BC005E020ED47A4B1A68950702D5E268012ABA
:1009CC0088D11A68216922F0F80242EAC1021A6041
:1009DC008AE7E268734BB2B101221A60FFF7D2FDCD
:1009EC006F4D06462B68980707D52B68226923F0B4
:1009FC00F80343EAC2032B6076E7FFF7C3FD801BC5
:100A0C000228EFD9A9E71A60FFF7BCFD644D064632
:100A1C002B6899077FF568AFFFF7B4FD801B0228A0
:100A2C00F6D99AE76269604B7AB101221A60FFF736
:100A3C00A9FD5B4D06466B6F9F073FF559AFFFF75E
:100A4C00A1FD801B0228F6D987E71A60FFF79AFDF3
:100A5C00534D06466B6F98077FF54AAFFFF792FD33
:100A6C00801B0228F6D978E74D4B1A6C12F0805295
:100A7C0028D101921A6C42F080521A641B6C03F05C
:100A8C0080530193019B0126484D2B68D9051BD53A
:100A9C00A368434D012B27D12B6F43F001032B6728
:100AAC00FFF770FD3E4D074641F288382B6F9B07D0
:100ABC0039D5002E3FF420AF394A136C23F0805304
:100ACC00136419E70026DFE72B6843F480732B606F
:100ADC00FFF758FD07462B68DA05D9D4FFF752FD0E
:100AEC00C01B0228F7D938E7052B04D12B6F43F034
:100AFC0004032B67D0E72A6F22F001022A672A6FC2
:100B0C0022F004022A67002BCAD1FFF73BFD41F209
:100B1C00883807462B6F9807CBD5FFF733FDC01BE2
:100B2C004045F7D919E7FFF72DFDC01B4045BDD94E
:100B3C0013E71B4DAB6803F00C03082B3FF4CAAE54
:100B4C001B4E0023022A336034D1FFF71BFD0746EE
:100B5C002B6899011ED4226AE3691343626A43EA43
:100B6C008213E26A43EA0263A26A0D4C5208013A0C
:100B7C0043EA02436B6001233360FFF703FD054634
:100B8C0023689A013FF5BCAEFFF7FCFC401B022822
:100B9C00F6D9E2E6FFF7F6FCC01B0228D8D9DCE652
:100BAC000038024000004742800E4742007000406F
:100BBC0060004742FFF7E6FC04462B689B017FF57B
:100BCC009FAEFFF7DFFC001B0228F6D9C5E600BF7D
:100BDC00134908B58B6803F00C03042B03D0082BC6
:100BEC0003D0104808BD104808BD4A684B684968D6
:100BFC0013F4800314BF0C480A48C1F3881118BFC2
:100C0C00002302F03F02A1FB0001FFF7E9FA044BBD
:100C1C005B68C3F3014301335B00B0FBF3F008BD29
:100C2C00003802400024F40040787D012DE9F041A9
:100C3C000D46044610B90120BDE8F081444B1A68FA
:100C4C0002F00F028A4228D321688F072DD4C807DF
:100C5C0040D43F4B1A6802F00F02954266D32268CB
:100C6C0051076CD4130707D53A4A2169936823F4CA
:100C7C00604343EAC1039360FFF7AAFF354B364A42
:100C8C009B68C3F30313D35CD840344B186000202B
:100C9C00FFF72EFC0020BDE8F081CAB21A701B6869
:100CAC0003F00F039942C6D1CEE72A4B11F0040F83
:100CBC001EBF9A6842F4E0529A600E0742BF9A68CF
:100CCC0042F460429A609A68A06822F0F0020243F3
:100CDC009A60BCE762681F4B012A1DD11B6813F494
:100CEC00003FA8D01B4EB36823F003031343B3603B
:100CFC00FFF748FC41F288380746B368626803F096
:100D0C000C03B3EB820FA4D0FFF73CFCC01B404597
:100D1C00F3D90320BDE8F081911E01291B6802D88C
:100D2C0013F0007FDDE713F0020FDAE7EAB21A7076
:100D3C001B6803F00F039D427FF47DAF8FE70549DD
:100D4C00E0688B6823F4E05303438B608AE700BFB1
:100D5C00003C0240003802407418000808000020D3
:100D6C002DE9F041069E0446884617461D4622682A
:100D7C00936838EA03030CBF012300239F4202D17E
:100D8C000020BDE8F0816B1CF2D055BB23685A687B
:100D9C0022F0E0025A606268B2F5827F0AD1A26842
:100DAC00B2F5004F02D0B2F5806F03D11A6822F071
:100DBC0040021A60A26AB2F5005F09D11A6822F4E7
:100DCC0000521204120C1A601A6842F400521A6093
:100DDC00012384F85130002384F850300320BDE8FF
:100DEC00F081FFF7CFFB801B8542C0D8CEE713B54F
:100DFC000B460092802100220446FFF7B1FF20B180
:100E0C00636D43F020036365032002B010BD10B581
:100E1C000446002836D00023836290F8513003F04A
:100E2C00FF021BB980F8502000F04CFC2168A06830
:100E3C00A269022384F851300B6823F040030B6045
:100E4C0063680343E0680343206903436069034319
:100E5C00E0690343206A0343A06A034302F4007071
:100E6C0003430B60120C636A02F004021A434A60DB
:100E7C00CB6923F40063CB6100200123606584F807
:100E8C00513010BD012010BD2DE9FF411E4690F8D8
:100E9C005030012B04460D46904600F09C800123F7
:100EAC0080F85030FFF76EFB074694F85100C0B243
:100EBC00012840F08E80002D4ED0B8F1000F4BD0A1
:100ECC00032384F8513000236365A363A4F83680B0
:100EDC00A387E38763642364A3682563B3F5004F9A
:100EEC002368A4F8348002BF1A6842F480421A6066
:100EFC001A6852065EBF1A6842F040021A60E26835
:100F0C00B2F5006F626838D11AB1E28E92B2012A42
:100F1C0006D135F8022BDA60E38E013B9BB2E386F7
:100F2C00E38E9BB293B900973346012202212046EF
:100F3C00FFF716FF78B93A4631462046FFF757FFC0
:100F4C00002838D020236365012005E023689A68C7
:100F5C009007DED44EB90320012384F851300023CE
:100F6C0084F8503004B0BDE8F081711CD8D0FFF784
:100F7C0009FBC01B8642D3D8EDE71AB1E28E92B2C0
:100F8C00012A06D115F8012B1A73E38E013B9BB293
:100F9C00E386E38E9BB2002BC5D023689A68920738
:100FAC00F0D4002ED7D0731CF3D0FFF7EBFAC01B94
:100FBC008642EED8CFE7A36833B903932368DA6887
:100FCC0003929B680393039B606D003018BF012054
:100FDC00C2E70220C0E70220C4E72DE9F04399469E
:100FEC0090F8503085B0012B04460D4616460C9FE8
:100FFC0000F0ED80012380F85030FFF7C3FA94F82D
:10100C0051306168DBB2012B80460AD0B1F5827F8A
:10101C0040F0DB80A268002A40F0D780042B40F01F
:10102C00D480002D4ED0002E4CD0B9F1000F49D0F9
:10103C0094F85130A663012B04BF052384F851307A
:10104C0000236365236463642368A4F83E90A4F8CA
:10105C0036901A68A4F83C90500658BF1A6825635D
:10106C0058BF42F04002A4F8349058BF1A60E268AE
:10107C00B2F5006F5DD119B1E28E92B2012A06D1A0
:10108C0035F8022BDA60E38E013B9BB2E3864FF01E
:10109C000109E38E9BB2BBB9E38F9BB2A3B9CDF828
:1010AC0000803B46012202212046FFF759FE002812
:1010BC0035D1424639462046FFF799FE002879D0B3
:1010CC002023636501202BE0B9F1000F0FD0E38ED4
:1010DC009BB263B123689A68910708D535F8022B47
:1010EC00DA60E38E013B9BB2E3864FF00009E38F9D
:1010FC009BB263B123689A68D20708D5DB6826F8DF
:10110C00023BE38F013B9BB2E3874FF00109781C54
:10111C00BFD0FFF737FAA0EB08008742B9D80320FD
:10112C00012384F85130002384F8503005B0BDE819
:10113C00F08319B1E28E92B2012A06D115F8012B77
:10114C001A73E38E013B9BB2E3864FF00109E38EE9
:10115C009BB21BB9E38F9BB2002BA0D0B9F1000F4F
:10116C000FD0E38E9BB263B123689A68910708D5C0
:10117C002A781A73E38E013B9BB2E38601354FF05C
:10118C000009E38F9BB263B123689A68D20708D534
:10119C00DB683370E38F013B9BB2E38701364FF082
:1011AC0001097B1CD3D0FFF7EDF9A0EB08008742B7
:1011BC00CDD8B4E7A368002BB2D123680390DA68CA
:1011CC0003929B680393039BAAE70220A8E70220E3
:1011DC00ACE790F85100704730B50F4B5D7A05F0D5
:1011EC00FF04B5B95D7A5C555D7A03EB85056860E3
:1011FC00587A184402725A7AD2B2501CC0B2587241
:10120C003A2330324B702F230A708B70CC702046EF
:10121C0030BD012030BD00BF3C0000200022FFF794
:10122C00DBBF000008B503490348FFF7F7FF034B8A
:10123C00187008BD500000200C0000205400002045
:10124C0030B595B03022002108A800F0F9FA002141
:10125C00142203A800F0F4FA00241D4B01941A6C1C
:10126C0042F080521A641B6C03F080530193019B73
:10127C00184B02941A6842F440421A601B680F948F
:10128C0003F440430293029B01230B9310230C9312
:10129C0008231093B4230225119308A80423139355
:1012AC0008950E951295FFF711FBFFF7D3FA0F2354
:1012BC0003934FF4A053069305214FF4805303A8D6
:1012CC00049505940793FFF7B1FC15B030BD00BF32
:1012DC00003802400070004000B589B0FFF72CF9CF
:1012EC00FFF7AEFF1422002103A800F0A9FA002496
:1012FC00254B01941A6B254842F001021A631A6BB4
:10130C0002F001020192019A02941A6B42F040021F
:10131C001A631B6B03F04003029322461021029BBD
:10132C00FFF792FA22464FF400511948FFF78CFA56
:10133C000125102303A915480393049505940694DD
:10134C00FFF796F94FF400531148039303A9049542
:10135C0005940694FFF78CF9FFF764FF0D480E4ACD
:10136C0084604FF4827380E80C004FF40073836147
:10137C000A23C46004614461C461046244628462EF
:10138C00C362FFF744FDFEE7003802400000024054
:10139C0000180240B80400200030014007B58DF859
:1013AC0007000848FFF715FF01280246F9D14FF452
:1013BC007A730DF107010348FFF766FD03B05DF882
:1013CC0004FB00BFB8040020002210210148FFF7E5
:1013DC003BBA00BF00000240012210210148FFF778
:1013EC0033BA00BF000002401FB5FF238DF80E304A
:1013FC0000238DF80F300A48FFF7EBFE0128034657
:10140C00F9D14FF47A7200920DF10E010DF10F0229
:10141C000348FFF7E2FD9DF80F0005B05DF804FBF3
:10142C00B804002070B505460C463226FFF7DCFFE9
:10143C00FF2811D0013EF9D1FF2070BD482D14BFFB
:10144C0000208720FFF7AAFF0824FFF7CDFF030633
:10145C0017D5013CF9D170BD2846FFF79FFF200E30
:10146C00FFF79CFFC4F30740FFF798FFC4F3072076
:10147C00FFF794FFE0B2FFF791FF402DDED19520EE
:10148C00E0E770BD70B504460D463226FFF7ACFFA1
:10149C00FF2804D1013EF9D170BD1D46F5E7FE28A9
:1014AC000ED104F50076FFF79FFF04F8010BB44250
:1014BC00F9D1FFF799FFFFF797FF2B1F002DECD108
:1014CC0070BD000073B510B1012002B070BD4A4B65
:1014DC001A7812F0020F1E4602D01878C0B2F4E748
:1014EC000120FFF755F8FFF777FF4A24FF20FFF79D
:1014FC0055FF013CFAD1FFF767FF21464020FFF76B
:10150C0091FF0546FFF768FF012DDDD1FF20FFF7A6
:10151C0045FFFFF759FF4FF4D5714820FFF782FFC5
:10152C0001283CD101ADFFF75FFF28550134042C95
:10153C00F9D19DF80630EBB1322400217720FFF76A
:10154C0071FF012823D9013CF7D100217A20FFF744
:10155C0069FF78B90446FFF747FF28550134042C7E
:10156C00F9D19DF8043013F0400F244B14BF062220
:10157C0002221A70FFF730FFFFF736FF1F4B1B7864
:10158C001BB1337803F0FE0333703078A6E74FF0CD
:10159C0080416920FFF746FF0028D4D1D5E72146CA
:1015AC007720FFF73FFF012806D821466920FFF777
:1015BC0039FF012898BF0225104C257032250021D7
:1015CC007720FFF72FFF012810D800216920FFF7A3
:1015DC0029FF08B1013DF2D14FF400715020FFF703
:1015EC0021FF0028C6D000232370C3E70528F1D1C2
:1015FC0000214120EBE700BF4800002049000020FB
:10160C0018B9034B1878C0B270470120704700BF5F
:10161C004800002037B50D461446019358BB53B310
:10162C00174B1B78DB0728D4FFF7CEFE019B012B51
:10163C00214611D15120FFF7F5FE18B901A9284612
:10164C00FFF720FFFFF7C8FEFFF7CEFE0198003032
:10165C0018BF012003B030BD5220FFF7E3FE044653
:10166C000028EFD101A92846FFF70CFF21464C209A
:10167C00FFF7D8FEE6E70420ECE70320EAE700BF1B
:10168C0048000020002070470020704782B00C4BAF
:10169C00002100915A6C42F480425A645A6C02F454
:1016AC0080420092009A01911A6C42F080521A64A6
:1016BC001B6C03F080530193019B02B0704700BF79
:1016CC000038024010B5044688B01422002103A84B
:1016DC0000F0B6F82268144B9A4222D103F58433F9
:1016EC00002101915A6C114842F480525A645A6C90
:1016FC0002F480520192019A02911A6B42F001029B
:10170C001A631B6B03F001030293029BE023039308
:10171C00022304930323069303A905230793FEF7DF
:10172C00A7FF08B010BD00BF003001400000024010
:10173C007047FEE7FEE7FEE7FEE77047704770472D
:10174C00FEF714BF0F49D1F8883043F47003C1F889
:10175C0088300D4B1A68002042F001021A60986024
:10176C001A6822F0847222F480321A60074A5A6096
:10177C001A6822F480221A60D8604FF000638B60E4
:10178C00704700BF00ED00E000380240103000242C
:10179C00FFF798BEFFF734BFFFF73CBFFFF772BFF0
:1017AC00FFF772BFDFF834D0002103E00C4B5B581D
:1017BC00435004310B480C4B42189A42F6D30B4A57
:1017CC0002E0002342F8043B094B9A42F9D3FFF79D
:1017DC00B9FF00F011F8FFF77FFD70470000032000
:1017EC009418000800000020200000202000002099
:1017FC0010050020FEE7000070B50D4E0D4CA41B2B
:10180C00A4100025A54209D10B4E0C4C00F020F879
:10181C00A41BA4100025A54205D170BD56F8253097
:10182C0098470135EEE756F8253098470135F2E731
:10183C008C1800088C1800088C18000890180008E8
:10184C0002440346934200D1704703F8011BF9E7A9
:10185C00F8B500BFF8BC08BC9E467047F8B500BF91
:08186C00F8BC08BC9E46704761
:10187400000000000000000001020304060708093C
:0818840098E9FF7F010000005C
:04188C00D10100087E
:04189000AD0100089E
:1018940001000000100000000024F4009D1700085F
:1018A400A1170008A5170008A9170008AD1700081C
:04000005080017B127
:00000001FF
