:020000040800F2
:1000000000000320452B0008692A00086B2A00081D
:100010006D2A00086F2A0008712A000800000000FD
:10002000000000000000000000000000732A00082B
:10003000752A000800000000772A0008792A0008C5
:10004000952B0008952B0008952B0008952B000890
:10005000952B0008952B0008952B0008952B000880
:10006000952B0008952B0008952B0008952B000870
:10007000952B0008952B0008952B0008952B000860
:10008000952B0008952B0008952B0008952B000850
:10009000952B0008952B0008952B0008952B000840
:1000A000952B0008952B0008952B0008952B000830
:1000B000952B0008952B0008952B0008952B000820
:1000C000952B0008952B0008952B0008952B000810
:1000D000952B0008952B0008952B0008952B000800
:1000E000952B0008952B0008952B0008952B0008F0
:1000F000952B0008952B0008952B0008952B0008E0
:10010000952B0008952B0008952B0008952B0008CF
:10011000952B0008952B0008952B0008952B0008BF
:10012000952B0008952B0008952B0008952B0008AF
:10013000952B0008952B0008952B0008952B00089F
:10014000952B0008952B0008952B0008952B00088F
:10015000952B0008952B0008952B0008952B00087F
:10016000952B0008952B0008952B0008952B00086F
:10017000952B0008952B0008952B00080000000027
:10018000952B0008952B0008952B0008952B00084F
:10019000952B0008952B0008952B0008952B00083F
:0C01A000952B0008952B0008952B0008FB
:1001AC0010B5054C237833B9044B13B10448AFF3A5
:1001BC0000800123237010BD2000002000000000EF
:1001CC00F02B000808B5034B1BB103490348AFF3F0
:1001DC00008008BD0000000024000020F02B000867
:1001EC00034613F8012B002AFBD1181A013870476B
:1001FC0053B94AB9002908BF00281CBF4FF0FF3182
:10020C004FF0FF3000F07AB9ADF1080C6DE904CE77
:10021C0000F006F8DDF804E0DDE9022304B07047D5
:10022C002DE9F0478C460D460446089E002B51D113
:10023C008A4217466DD9B2FA82FEBEF1000F0BD07E
:10024C00CEF1200C01FA0EF520FA0CFC02FA0EF796
:10025C004CEA050C00FA0EF44FEA174A250CBCFBCD
:10026C00FAF81FFA87F90AFB18CC45EA0C4508FB8B
:10027C0009F3AB420AD9ED1908F1FF3280F0238162
:10028C00AB4240F22081A8F102083D44ED1AA4B221
:10029C00B5FBFAF00AFB105544EA054400FB09F9DA
:1002AC00A14509D9E41900F1FF3380F00A81A14579
:1002BC0040F2078102383C44A4EB090440EA0840B0
:1002CC000021002E61D024FA0EF4002334607360F8
:1002DC00BDE8F0878B4207D9002E54D0002186E868
:1002EC0021000846BDE8F087B3FA83F1002940F0FD
:1002FC008E80AB4202D3824200F2FA80841A65EB04
:10030C0003050120AC46002E3FD086E81010BDE856
:10031C00F08712B90127B7FBF2F7B7FA87FEBEF1E7
:10032C00000F34D1EB1B3A0C1FFA87FC0121B3FBF5
:10033C00F2F8250C02FB183345EA03450CFB08F3D5
:10034C00AB4207D9ED1908F1FF3002D2AB4200F2F3
:10035C00D1808046ED1AA3B2B5FBF2F002FB10552A
:10036C0043EA05440CFB00FCA44507D9E41900F151
:10037C00FF3302D2A44500F2B8801846A4EB0C045B
:10038C0040EA08409DE731463046BDE8F087CEF1A3
:10039C00200405FA0EF307FA0EF720FA04F83A0CCB
:1003AC0025FA04F448EA0308B4FBF2F14FEA1845C5
:1003BC0002FB11441FFA87FC45EA044501FB0CF3D0
:1003CC00AB4200FA0EF409D9ED1901F1FF3080F0BF
:1003DC008A80AB4240F2878002393D44EB1A1FFA07
:1003EC0088F5B3FBF2F002FB103345EA034500FB42
:1003FC000CF3AB4207D9ED1900F1FF386FD2AB42C9
:10040C006DD902383D44EB1A40EA01418FE7C1F146
:10041C00200722FA07F88B4005FA01F448EA030397
:10042C0020FA07FE4FEA134CFD404EEA040EB5FBD2
:10043C00FCF94FEA1E440CFB19551FFA83F844EAE9
:10044C00054509FB08F4AC4202FA01F200FA01FA84
:10045C0008D9ED1809F1FF3043D2AC4241D9A9F1CA
:10046C0002091D442D1B1FFA8EFEB5FBFCF00CFB84
:10047C0010554EEA054400FB08F8A04507D9E418CE
:10048C0000F1FF3529D2A04527D902381C4440EA97
:10049C000940A4EB0804A0FB02894C45C6464D4616
:1004AC0015D312D056B1BAEB0E0364EB050404FA63
:1004BC0007F7CB401F43CC40376074600021BDE888
:1004CC00F0871846F8E69046E0E6C245EAD2B8EB6B
:1004DC00020E69EB03050138E4E72846D7E74046EE
:1004EC0091E78146BEE7014678E702383C4445E790
:1004FC00084608E7A8F102083D442BE7704700BF07
:10050C0038B50E4A0E4B054618784FF47A73B3FB88
:10051C00F0F31068B0FBF3F000F09CF8044658B907
:10052C000F2D09D8024629464FF0FF3000F05EF837
:10053C00044B20461D6038BD012038BD080000204A
:10054C00000000200400002008B50B4B1A6842F490
:10055C0000721A601A6842F480621A601A6842F4D7
:10056C0080721A60032000F02FF80020FFF7C8FFFC
:10057C0002F022FA002008BD003C0240034A044B62
:10058C0011681B780B441360704700BF7400002087
:10059C0000000020014B1868704700BF7400002059
:1005AC0038B50446FFF7F6FF631C1CBF054B1B78E0
:1005BC00054618BFE418FFF7EDFF401B8442FAD83C
:1005CC0038BD00BF00000020074AD36823F4E06365
:1005DC001B041B0C43F0BF63000243F4003300F414
:1005EC00E0600343D360704700ED00E0174B30B57B
:1005FC00DC68C4F30224C4F10703251D042B28BFB7
:10060C000423062D4FF0010505FA03F303F1FF3324
:10061C008CBF033C00241940A14005FA04F4013CB2
:10062C002240002842EA01024FEA0212AFBF00F159
:10063C00604000F00F00064BD2B2A5BF00F5614040
:10064C00D2B21A5480F8002330BD00BF00ED00E098
:10065C0014ED00E00138B0F1807F0AD2064B074A56
:10066C005860F02182F823100020072298601A604D
:10067C0070470120704700BF10E000E000ED00E083
:10068C002DE9F04F85B00B68DFF8C4816E4ADFF8B6
:10069C00C491019300234FF0010E019C0EFA03FE4E
:1006AC000EEA0406B64540F0B6804C6824F01007FC
:1006BC00022F16D14FEAD30A00EB8A0A03F0070B7C
:1006CC00DAF820504FEA8B0B4FF00F0C0CFA0BFCA6
:1006DC0025EA0C0C0D6905FA0BF545EA0C05CAF870
:1006EC0020504FEA430A0325D0F800B005FA0AF56A
:1006FC00ED4304F0030C0BEA050B0CFA0AFC013F6A
:10070C004CEA0B0C012FC0F800C011D8876807EA1F
:10071C00050BCF6807FA0AFC4CEA0B0787604768A1
:10072C0027EA0E0EC4F300179F4047EA0E074760F6
:10073C00C7683D408F6807FA0AF73D43C560E5007E
:10074C0069D54FF0000BCDF80CB0D8F844703F4D84
:10075C0047F48047C8F84470D8F8447007F48047D1
:10076C000397039F23F0030707F1804707F59C3796
:10077C0003F0030CD7F808A04FEA8C0C4FF00F0EC7
:10078C000EFA0CFEA8422AEA0E0E4BD005F5806537
:10079C00A84249D005F58065A84247D005F580658B
:1007AC00A84245D005F58065A84243D0484543D0C2
:1007BC0005F50065A84241D005F58065A8423FD0FB
:1007CC0005F58065A8423DD005F58065A84214BFAB
:1007DC000A25092505FA0CF545EA0E05BD601568D4
:1007EC00F74314F4803F0CBF3D403543156055680A
:1007FC0014F4003F0CBF3D4035435560956814F42C
:10080C00801F0CBF3D4035439560D568A40254BF92
:10081C003D403543D5600133102B7FF43CAF05B020
:10082C00BDE8F08F5D46D5E70125D3E70225D1E77A
:10083C000325CFE70425CDE70525CBE70625C9E73A
:10084C000725C7E70825C5E7003C0140000002402A
:10085C0000380240001402400AB18161704709045B
:10086C00FBE7000037B500230193184B184C1A6CAA
:10087C0042F080521A641B6C03F080530193019B6D
:10088C00144B01221A60FFF785FE05466368DA03F4
:10089C000BD5114B0E4C01221A60FFF77BFE05465F
:1008AC0063689B030AD5002006E0FFF773FE401B2C
:1008BC00B0F57A7FEAD9032003B030BDFFF76AFEAA
:1008CC00401BB0F57A7FEBD9F5E700BF003802404A
:1008DC000070004040000E4244000E422DE9F341EE
:1008EC00044618B9012002B0BDE8F0810368DD07A9
:1008FC0010D42368980758D423681A0700F19A80FB
:10090C0023685B0700F1B880A269002A40F01981C6
:10091C000020E8E7A64B9A6802F00C02042A07D0E4
:10092C009A6802F00C02082A0AD15B68590207D5B2
:10093C009F4B1B689A03DCD56368002BD9D1D1E798
:10094C0063689B4DB3F5803F11D12B6843F4803322
:10095C002B60FFF71FFE964D06462B689B03C8D4F1
:10096C00FFF718FE801B6428F7D90320BBE7B3F50B
:10097C00A02F04D12B6843F480232B60E5E72A6871
:10098C0022F480322A602A6822F480222A60002B0A
:10099C00DFD1FFF7FFFD06462B689F03A9D5FFF7B4
:1009AC00F9FD801B6428F7D9DFE7814B9A6812F0B8
:1009BC000C0F07D09A6802F00C02082A11D15B6860
:1009CC005E020ED47A4B1A68950702D5E268012AAA
:1009DC0088D11A68216922F0F80242EAC1021A6031
:1009EC008AE7E268734BB2B101221A60FFF7D2FDBD
:1009FC006F4D06462B68980707D52B68226923F0A4
:100A0C00F80343EAC2032B6076E7FFF7C3FD801BB4
:100A1C000228EFD9A9E71A60FFF7BCFD644D064622
:100A2C002B6899077FF568AFFFF7B4FD801B022890
:100A3C00F6D99AE76269604B7AB101221A60FFF726
:100A4C00A9FD5B4D06466B6F9F073FF559AFFFF74E
:100A5C00A1FD801B0228F6D987E71A60FFF79AFDE3
:100A6C00534D06466B6F98077FF54AAFFFF792FD23
:100A7C00801B0228F6D978E74D4B1A6C12F0805285
:100A8C0028D101921A6C42F080521A641B6C03F04C
:100A9C0080530193019B0126484D2B68D9051BD52A
:100AAC00A368434D012B27D12B6F43F001032B6718
:100ABC00FFF770FD3E4D074641F288382B6F9B07C0
:100ACC0039D5002E3FF420AF394A136C23F08053F4
:100ADC00136419E70026DFE72B6843F480732B605F
:100AEC00FFF758FD07462B68DA05D9D4FFF752FDFE
:100AFC00C01B0228F7D938E7052B04D12B6F43F024
:100B0C0004032B67D0E72A6F22F001022A672A6FB1
:100B1C0022F004022A67002BCAD1FFF73BFD41F2F9
:100B2C00883807462B6F9807CBD5FFF733FDC01BD2
:100B3C004045F7D919E7FFF72DFDC01B4045BDD93E
:100B4C0013E71B4DAB6803F00C03082B3FF4CAAE44
:100B5C001B4E0023022A336034D1FFF71BFD0746DE
:100B6C002B6899011ED4226AE3691343626A43EA33
:100B7C008213E26A43EA0263A26A0D4C5208013AFC
:100B8C0043EA02436B6001233360FFF703FD054624
:100B9C0023689A013FF5BCAEFFF7FCFC401B022812
:100BAC00F6D9E2E6FFF7F6FCC01B0228D8D9DCE642
:100BBC000038024000004742800E4742007000405F
:100BCC0060004742FFF7E6FC04462B689B017FF56B
:100BDC009FAEFFF7DFFC001B0228F6D9C5E600BF6D
:100BEC00134908B58B6803F00C03042B03D0082BB6
:100BFC0003D0104808BD104808BD4A684B684968C6
:100C0C0013F4800314BF0C480A48C1F3881118BFB1
:100C1C00002302F03F02A1FB0001FFF7E9FA044BAD
:100C2C005B68C3F3014301335B00B0FBF3F008BD19
:100C3C00003802400024F40040787D012DE9F04199
:100C4C000D46044610B90120BDE8F081444B1A68EA
:100C5C0002F00F028A4228D321688F072DD4C807CF
:100C6C0040D43F4B1A6802F00F02954266D32268BB
:100C7C0051076CD4130707D53A4A2169936823F4BA
:100C8C00604343EAC1039360FFF7AAFF354B364A32
:100C9C009B68C3F30313D35CD840344B186000201B
:100CAC00FFF72EFC0020BDE8F081CAB21A701B6859
:100CBC0003F00F039942C6D1CEE72A4B11F0040F73
:100CCC001EBF9A6842F4E0529A600E0742BF9A68BF
:100CDC0042F460429A609A68A06822F0F0020243E3
:100CEC009A60BCE762681F4B012A1DD11B6813F484
:100CFC00003FA8D01B4EB36823F003031343B3602B
:100D0C00FFF748FC41F288380746B368626803F085
:100D1C000C03B3EB820FA4D0FFF73CFCC01B404587
:100D2C00F3D90320BDE8F081911E01291B6802D87C
:100D3C0013F0007FDDE713F0020FDAE7EAB21A7066
:100D4C001B6803F00F039D427FF47DAF8FE70549CD
:100D5C00E0688B6823F4E05303438B608AE700BFA1
:100D6C00003C024000380240EB2C00080800002038
:100D7C002DE9F041069E0446884617461D4622681A
:100D8C00936838EA03030CBF012300239F4202D16E
:100D9C000020BDE8F0816B1CF2D055BB23685A686B
:100DAC0022F0E0025A606268B2F5827F0AD1A26832
:100DBC00B2F5004F02D0B2F5806F03D11A6822F061
:100DCC0040021A60A26AB2F5005F09D11A6822F4D7
:100DDC0000521204120C1A601A6842F400521A6083
:100DEC00012384F85130002384F850300320BDE8EF
:100DFC00F081FFF7CFFB801B8542C0D8CEE713B53F
:100E0C000B460092802100220446FFF7B1FF20B16F
:100E1C00636D43F020036365032002B010BD10B571
:100E2C000446002836D00023836290F8513003F03A
:100E3C00FF021BB980F8502001F0DAFD2168A06890
:100E4C00A269022384F851300B6823F040030B6035
:100E5C0063680343E0680343206903436069034309
:100E6C00E0690343206A0343A06A034302F4007061
:100E7C0003430B60120C636A02F004021A434A60CB
:100E8C00CB6923F40063CB6100200123606584F8F7
:100E9C00513010BD012010BD2DE9FF411E4690F8C8
:100EAC005030012B04460D46904600F09C800123E7
:100EBC0080F85030FFF76EFB074694F85100C0B233
:100ECC00012840F08E80002D4ED0B8F1000F4BD091
:100EDC00032384F8513000236365A363A4F83680A0
:100EEC00A387E38763642364A3682563B3F5004F8A
:100EFC002368A4F8348002BF1A6842F480421A6056
:100F0C001A6852065EBF1A6842F040021A60E26824
:100F1C00B2F5006F626838D11AB1E28E92B2012A32
:100F2C0006D135F8022BDA60E38E013B9BB2E386E7
:100F3C00E38E9BB293B900973346012202212046DF
:100F4C00FFF716FF78B93A4631462046FFF757FFB0
:100F5C00002838D020236365012005E023689A68B7
:100F6C009007DED44EB90320012384F851300023BE
:100F7C0084F8503004B0BDE8F081711CD8D0FFF774
:100F8C0009FBC01B8642D3D8EDE71AB1E28E92B2B0
:100F9C00012A06D115F8012B1A73E38E013B9BB283
:100FAC00E386E38E9BB2002BC5D023689A68920728
:100FBC00F0D4002ED7D0731CF3D0FFF7EBFAC01B84
:100FCC008642EED8CFE7A36833B903932368DA6877
:100FDC0003929B680393039B606D003018BF012044
:100FEC00C2E70220C0E70220C4E72DE9F04399468E
:100FFC0090F8503085B0012B04460D4616460C9FD8
:10100C0000F0ED80012380F85030FFF7C3FA94F81C
:10101C0051306168DBB2012B80460AD0B1F5827F7A
:10102C0040F0DB80A268002A40F0D780042B40F00F
:10103C00D480002D4ED0002E4CD0B9F1000F49D0E9
:10104C0094F85130A663012B04BF052384F851306A
:10105C0000236365236463642368A4F83E90A4F8BA
:10106C0036901A68A4F83C90500658BF1A6825634D
:10107C0058BF42F04002A4F8349058BF1A60E2689E
:10108C00B2F5006F5DD119B1E28E92B2012A06D190
:10109C0035F8022BDA60E38E013B9BB2E3864FF00E
:1010AC000109E38E9BB2BBB9E38F9BB2A3B9CDF818
:1010BC0000803B46012202212046FFF759FE002802
:1010CC0035D1424639462046FFF799FE002879D0A3
:1010DC002023636501202BE0B9F1000F0FD0E38EC4
:1010EC009BB263B123689A68910708D535F8022B37
:1010FC00DA60E38E013B9BB2E3864FF00009E38F8D
:10110C009BB263B123689A68D20708D5DB6826F8CE
:10111C00023BE38F013B9BB2E3874FF00109781C44
:10112C00BFD0FFF737FAA0EB08008742B9D80320ED
:10113C00012384F85130002384F8503005B0BDE809
:10114C00F08319B1E28E92B2012A06D115F8012B67
:10115C001A73E38E013B9BB2E3864FF00109E38ED9
:10116C009BB21BB9E38F9BB2002BA0D0B9F1000F3F
:10117C000FD0E38E9BB263B123689A68910708D5B0
:10118C002A781A73E38E013B9BB2E38601354FF04C
:10119C000009E38F9BB263B123689A68D20708D524
:1011AC00DB683370E38F013B9BB2E38701364FF072
:1011BC0001097B1CD3D0FFF7EDF9A0EB08008742A7
:1011CC00CDD8B4E7A368002BB2D123680390DA68BA
:1011DC0003929B680393039BAAE70220A8E70220D3
:1011EC00ACE790F851007047034B1A1803EB8003DF
:1011FC00107A5B685B68184764000020064B1A5C29
:10120C0042B901221A541A1803EB8003107A5B6856
:10121C001B681847002070476400002030B4054C50
:10122C00251804EB800460688468287AA44630BCD6
:10123C00604700BF6400002030B4054C251804EB57
:10124C0080046068C468287AA44630BC604700BF3C
:10125C0064000020054B10B41C1803EB8003207AAB
:10126C005B685DF8044B1B69184700BF64000020E5
:10127C0042884378007843EA022340EA032070470F
:10128C000B0A017043700B0C090E8370C170704710
:10129C00024400F8011B9042FBD17047154BF0B58E
:1012AC0000252A461C461E68A6B10768BE4212D10C
:1012BC005F688668B7420ED19F684669B7420AD10B
:1012CC00B1B904EB02129389B3F5807F14BF0020EF
:1012DC001020F0BD01250132022A03F11003E2D1E6
:1012EC000DB10020F0BD02290CBF00201220F0BD72
:1012FC001020F0BD400000201C4AF0B5056800230A
:10130C0016461468AC4207D157688468A74203D1CB
:10131C0097684469A7421DD00133022B02F11002D9
:10132C00EFD1336813B13369EBB901231C013219C6
:10133C00355184684069906000205460908179B97F
:10134C0006EB03129289013292B206EB0316581C7B
:10135C00B281F0BD0029F3D006EB0312928912B9C9
:10136C004FF48072F1E70020F0BD00BF4000002078
:10137C00013801280ED8094A0301D118898921F4B2
:10138C00807080B208B1481E80B2D118888118B91B
:10139C00D05070470220704700207047400000205A
:1013AC0043690239023B99423DBF4389806A01FB84
:1013BC00030000207047C36A02680433490A52894B
:1013CC00B1FBF2F1186830B1814202D3091A08332B
:1013DC00F8E7586808447047026810B552B11146D6
:1013EC000B4611F8014B202C0CD93A2CF8D1511C7E
:1013FC008B4202D04FF0FF3010BD1278302AF9D159
:10140C0001330360002010BD38B50D46044618B9F1
:10141C0000232B60092038BD0368002BF8D01A7804
:10142C00002AF5D0D98882889142F1D15878FFF7FB
:10143C00DBFE10F00100EBD123682B6038BD0138C6
:10144C000A4411F8013B00F8013F9142F9D1704771
:10145C00CA7E8B7E032843EA022301BF487D0A7DA6
:10146C0042EA002243EA024318467047C2F30723BC
:10147C008A76CB760378032B01BF120C0A75120AFD
:10148C004A757047F8B5C56A00F130070446012368
:10149C002A4639464078FFF7CFFEA0B9236AA269E5
:1014AC00E070EB1A934201D30020F8BDA678012E10
:1014BC00FAD9A36960781D442A4601233946FFF7FF
:1014CC00BBFE013EF3E70120F8BDC3780BB1FFF77B
:1014DC00D9BF18467047F8B50446FFF7F6FF054626
:1014EC00002842D12378032B37D12779012F34D10F
:1014FC0004F1300601464FF400723046FFF7C8FE87
:10150C00552384F82E32AA2384F82F3252234122F9
:10151C00722184F8303084F83130612384F8323011
:10152C0084F8332084F8162284F8173284F81412C5
:10153C0084F8151204F506702169FFF7A1FEE16825
:10154C0004F50770FFF79CFEE26960780132E262F5
:10155C003B463146FFF770FE25710022114660783C
:10156C00FFF778FE003018BF0120F8BDC36A8B422C
:10157C0070B506460D4612D0FFF7A7FF044660B9BA
:10158C002A46012306F130017078FFF747FE002848
:10159C001CBF4FF0FF350124F562204670BD0024BE
:1015AC00FBE70000002310B5C3704FF0FF33C3629C
:1015BC000446FFF7DBFF30BB94F82F2294F82E3251
:1015CC0043EA02234AF6552293421ED194F8303056
:1015DC00E92B05D0236B104A03F0FF13934216D16D
:1015EC0004F16600FFF744FE0C4B20F07F4098425C
:1015FC000FD004F18200FFF73BFE094B984214BF59
:10160C000220002010BD042010BD032010BD0220BC
:10161C0010BD002010BD00BFEB00900046415400EF
:10162C00464154332DE9F043002385B00B600F463F
:10163C001546FFF7D1FE061EC0F24081A34B53F8AE
:10164C002640002C00F03C813C60237805F0FE0520
:10165C0073B16078FFF7C8FDC10709D4002D00F005
:10166C00318110F0040000D00A2005B0BDE8F083F1
:10167C000023F0B223706070FFF7C0FDC20700F1C9
:10168C0023810DB14307EFD400212046FFF78AFFD9
:10169C00022840F0F78004F5FB75002115F8040CC6
:1016AC0010B12846FFF7E4FD4DF821000131042963
:1016BC0005F11005F2D100255DF82560002E00F033
:1016CC00D88031462046FFF76DFF012800F2D2800A
:1016DC0094F83C2094F83B3043EA0223B3F5007FA6
:1016EC0040F0D48094F8473094F8465055EA0325DE
:1016FC0004D104F15400FFF7BBFD054694F840906B
:10170C00A56109F1FF33012B84F8029000F2BE8031
:10171C0094F83D70BBB26381002B00F0B7807B1E48
:10172C003B4240F0B38094F8423094F8418048EA50
:10173C00032818F00F0FA4F8088040F0A78094F845
:10174C00441094F8430050EA012003D104F15000F6
:10175C00FFF78EFD94F83F3094F83E2052EA0322B6
:10176C0000F0948005FB09F302EB181E9E447045B3
:10177C00C0F08C80A0EB0E01B1FBF7F1002900F05A
:10178C0085804FF6F570814200F2848040F6F57743
:10179C00B9428CBF022701270231324406EB0E00FE
:1017AC00032F6161E6612262A06275D194F85B201F
:1017BC0094F85A3053EA022368D1B8F1000F65D17E
:1017CC0004F15C00FFF754FD6062890001F2FF1127
:1017DC00B5EB512F5AD34FF0FF332361E360032F46
:1017EC004FF0800323712FD194F8612094F860306E
:1017FC0043EA0223012B27D1711C2046FFF7B6FECA
:10180C0010BB94F82F2294F82E32207143EA022355
:10181C004AF65522934217D104F13000FFF728FD08
:10182C002B4B984210D104F50570FFF721FD294B85
:10183C00984209D104F50670FFF71AFD206104F5F2
:10184C000770FFF715FDE060234A277013880133FA
:10185C009BB21380E380214B1A68944204BF002290
:10186C001A601A6994424FF000007FF4FEAE1861C2
:10187C00FBE603200135042D7FF41EAF042805D1AF
:10188C000120F2E60428FBD0012801D90D20ECE65A
:10189C0000261DE703277FE7B8F1000FF6D0022FD3
:1018AC004FEA410018BF4018134418BF01F0010162
:1018BC0063620CBF014601EB500187E70B20D4E6B5
:1018CC000C20D2E62846D0E60320CEE63C000020D1
:1018DC005252614172724161600000204000002050
:1018EC0001292DE9F04705460C46174672D9436984
:1018FC0099426FD20378022B3FD0032B50D0012B8F
:10190C0068D101EB5108016A01EB5821FFF72EFE5B
:10191C00064638BB05F1300908F1010AC8F308087E
:10192C0014F001041FBF19F8083003F00F023B013B
:10193C0003F0F00314BF1343FBB209F80830296A13
:10194C000123EB7001EB5A212846FFF70FFE0646E8
:10195C0040B9CAF3080A44B1C7F3071709F80A706B
:10196C000123EB703046BDE8F08719F80A30C7F355
:10197C00032723F00F031F43F0E7016A01EB142147
:10198C00FFF7F4FD06460028ECD1640005F13003A6
:10199C0004F4FF741A191F55C7F307275770DFE7B4
:1019AC00016A01EBD411FFF7E1FD06460028D9D1FD
:1019BC00A40005F1300304F4FE741C442046FFF728
:1019CC0057FC27F0704700F0704139432046FFF771
:1019DC0057FCC5E70226C5E70129F8B505460C46B4
:1019EC0052D9436999424FD20378022B29D0032B49
:1019FC0038D0012B48D101EB5106016A01EB56217D
:101A0C00FFF7B4FD10B14FF0FF30F8BD771C296A19
:101A1C00C6F308062E4401EB5721284696F8306091
:101A2C00FFF7A4FD0028EED1C7F308073D44E307F8
:101A3C0095F8300046EA00204CBF0009C0F30B00BB
:101A4C00F8BD016A01EB1421FFF790FD0028DAD1F3
:101A5C006400303504F4FF742B19285D5B7840EA80
:101A6C000320F8BD016A01EBD411FFF77FFD0028BC
:101A7C00C9D1A40005F1300004F4FE742044FFF732
:101A8C00F7FB20F07040F8BD0120F8BD2DE9F041C6
:101A9C00804605680F4671B9EE68F6B16B699E42D7
:101AAC0028BF012634466B6901349C4218D3012EA1
:101ABC0015D8002409E02846FFF78EFF01280446BC
:101ACC0037D9431C04D14FF0FF342046BDE8F081D8
:101ADC006B699842F9D33E46E4E70126E2E702241B
:101AEC002146D8F80000FFF777FF30B1012820D04D
:101AFC000130E8D0B442D6D1DBE74FF0FF322146BB
:101B0C002846FFF7EDFE90B957B96A692B69EC606E
:101B1C00023A93420FD92B7943F001032B71D4E78E
:101B2C00224639462846FFF7DBFE0028EDD0012877
:101B3C00C9D00124C9E7013B2B61ECE7F8B50D4690
:101B4C00012D0746114601D80220F8BD04686369CF
:101B5C009D42F9D22AB14FF0FF322046FFF7C0FE6A
:101B6C0008BB29463868FFF737FF064608B900203E
:101B7C00F8BD0128E8D0431C14D000222946204689
:101B8C00FFF7AEFE78B962692369911E8B4205D2CC
:101B9C0001332361237943F00103237196423546C7
:101BAC00DFD3E4E70120F8BD826838B50023054691
:101BBC000468436192B92378022B01D9636A73B923
:101BCC0023890BB9022038BD636AEB61EB69AA610A
:101BDC00002BF7D030342C62002038BD13466189BD
:101BEC001A4661B911462868FFF7F6FE431C0246F7
:101BFC000BD00128E6D963699842F3D3E2E7194682
:101C0C002046FFF7CDFBE861E0E7012038BDC36952
:101C1C002DE9F04705460F46ABB1426902F12008A9
:101C2C00B8F5001F0FD2C8F308090468B9F1000F0A
:101C3C004FD181690133C36141B92389B3EB581F7B
:101C4C0047D80023EB610420BDE8F0876389013B92
:101C5C0013EA58233DD12046FFF7BEFE0128064665
:101C6C0002D80220BDE8F087421C02D10120BDE859
:101C7C00F0876369984226D3002FE2D0A9692846E1
:101C8C00FFF704FF0646002837D00128E9D0431C93
:101C9C00ECD02046FFF719FC07460028E6D1014698
:101CAC004FF4007204F13000FFF7F2FA314620468F
:101CBC00FFF776FB4FF0010AE06263899F4210D375
:101CCC00E36ADF1BE762AE6131462046FFF768FB33
:101CDC00E86130344C44C5F814802C620020BDE817
:101CEC00F08784F803A02046FFF7CCFB0028BDD179
:101CFC00E36A01330137E362DFE70720BDE8F087D1
:101D0C002DE9F843076804460B782F2B0D4601F19B
:101D1C000101F9D05C2BF7D00023A3602B781F2B8B
:101D2C0059D9DFF85C8104F124060B2220213046BE
:101D3C00FFF7AEFA002205F1FF3E114608201EF80F
:101D4C00013F202B01F101010BD92F2B4BD168182E
:101D5C00411B10F801EBBEF12F0FF9D0BEF15C0F57
:101D6C00F6D00D44002A54D094F82420D4F80090D6
:101D7C00E52A04BF052284F82420212B34BF042338
:101D8C00002384F82F302046FFF70EFF002845D1A2
:101D9C00E1694846FFF7EAFB00283FD1236A1A782D
:101DAC00002A46D0DA7A02F03F02A271DA7A1107E1
:101DBC000CD403F10B0E314613F8012B11F801CBA7
:101DCC009E45A2EB0C0227D0002AF5D0002120461C
:101DDC00FFF71DFFDAE7802384F82F302046BDE89B
:101DEC00F843FFF7E1BE5C2BB1D02E2B36D09042DE
:101DFC000FD913F0800F18BF803BDFF8889018BF05
:101E0C0018F8033019F801CFBCF1000F2BD0634543
:101E1C00F8D10620BDE8F883002AD7D194F82F30EA
:101E2C0048B1042829D113F0040F08BF0520BDE8E0
:101E3C00F8830420F2E75A071FD4A379DB060AD5EE
:101E4C0063693878C3F3080307F130011944FFF7CD
:101E5C00FFFAA06067E70520BDE8F8830B28D8D00F
:101E6C0008220B206BE7A3F1610CBCF1190F01D810
:101E7C00203BDBB2B354013261E7BDE8F88300BF0D
:101E8C00082C0008872C000870B505460668FFF77B
:101E9C008BFE044628BBE9693046FFF767FB044616
:101EAC00F8B92B6A1B78E52B14D1E9693046FFF79A
:101EBC005DFB044660B901462022286AFFF7E8F969
:101ECC000B2205F12401286AFFF7B9FA0123F370FC
:101EDC00204670BD002BE8D001212846FFF797FE65
:101EEC00D7E7042C08BF0724F2E700007FB5019068
:101EFC0004A8009140F8041D1646FFF76DFA051E64
:101F0C001FDB124951F825405CB1114B1A68944201
:101F1C0004BF00221A601A690020944208BF18619D
:101F2C002070019808B10023037041F8250030B1EE
:101F3C00012E08D1002201A96846FFF773FB04B0FB
:101F4C0070BD0B20FBE70020F9E700BF3C00002030
:101F5C00400000202DE9F04790B0904601910446D6
:101F6C00002800F0CE8002F03F052A4603A901A804
:101F7C00FFF758FB074638BB10AE039B46F8303DC5
:101F8C0001993046FFF7BCFE58B99DF93F30002B44
:101F9C001EDB15F03E0F14BF012100213046FFF768
:101FAC007DF918F01C0F73D0A0B1042809D1714B26
:101FBC001A68002A00F0DA801B69002B00F0D6802A
:101FCC00122045F0080570B100232360074692E00B
:101FDC000620E6E79DF8163013F0110F63D118F0C8
:101FEC00040F40F0BD8028073CD500F025FA0246CE
:101FFC0001460C980E30FFF743F90C981146163039
:10200C00FFF73EF90C9BDDF80C902022DA72DDF81C
:10201C0030A099F800005146FFF71AFA00225146F9
:10202C0080464846FFF722FA0C9B00221A775A7713
:10203C009A77DA77039B0121D970B8F1000F11D090
:10204C0041463046D3F82C90FFF778FD0028BBD1E1
:10205C0049460398FFF78AFA039A08F1FF33D360D5
:10206C000028B1D1039B2807DB6A636248BF45F0A7
:10207C00400515F0FE0F0C9BA36214BF012100213B
:10208C003046FFF739F9206100283CD102209BE74C
:10209C00002899D19DF81630DA0663D418F0020F97
:1020AC00E0D0DB07DED507208EE72068FFF794FC35
:1020BC000128014623D9421C50425041A5EB08058A
:1020CC00002849D0E16100287FF47EAFC5F30803F6
:1020DC008BB1DDF80C804046FFF762F90028D5D0B3
:1020EC0000EB552222620123314698F80100FFF7DC
:1020FC0095F8002838D1384610B0BDE8F08702209A
:10210C00DCE70927F7E7039EDDF83080307841469D
:10211C00FFF79EF9A06008F11C00FFF7A9F8F388FF
:10212C002660002104F13006E060A380E162257591
:10213C0061752162A1614FF400723046FFF7A8F877
:10214C00AB06D8D5E568002DD5D0039BA168B3F8B4
:10215C000A80A5614FEA4828A845A6D30020B1E71C
:10216C00082031E704202FE701202DE73046FFF748
:10217C008BFE26E7400000202DE9F04F9B4685B0F2
:10218C0000238946CBF8003003A904461546FFF717
:10219C003BF9064600BB667DF6B9237DDA0740F1B4
:1021AC009680E368A769DF1BAF4228BF2F4604F176
:1021BC00300A8FB1A169C1F30803002B79D1039BBD
:1021CC005B89013B13EA5123019319D141B9A068F2
:1021DC00012810D802266675304605B0BDE8F08F90
:1021EC00E36A1BB12046FFF7E6F8F1E7E1692068E6
:1021FC00FFF7F2FBECE7431C01D10126EBE7E061B2
:10220C00039BE16900931846FFF7CAF80028E1D058
:10221C00019B7D0A03EB00082DD0009B019A5B8982
:10222C0000982A449A4288BF019A407888BF9D1A28
:10223C002B4642464946FEF7F1FF0028DDD194F9C2
:10224C001430002B0BDA206AA0EB0800854206D96B
:10225C004FF40072514609EB4020FFF7F0F86D0285
:10226C00A3692B44A361DBF800302B44A944CBF8C1
:10227C0000307F1B9DE7226A904518D094F91430EA
:10228C00002B0BDA0098012351464078FEF7D4FF5F
:10229C000028B2D1237D03F07F032375039801231B
:1022AC00424651464078FEF7B9FF0028A5D1C4F844
:1022BC002080A169C1F30801C1F50075BD4228BF9A
:1022CC003D462A4651444846FFF7B9F8C8E7072669
:1022DC0082E7F7B501A90446FFF796F805460028F2
:1022EC003AD1237D5A0637D51B060CD50198226AA4
:1022FC004078012304F13001FEF79EFF78BB237D6B
:10230C0003F07F03237500F097F8616A0746019884
:10231C00FFF72CF90546F8B9A66AF37A43F02003C7
:10232C00F372A26820683146FFF7A0F8E16806F165
:10233C001C00FEF7A5FF394606F11600FEF7A0FFBC
:10234C000198B5740123F574C370FFF7C4F8237DAD
:10235C0023F0400305462375284603B0F0BD012544
:10236C00FAE713B50446FFF7B4FF48B901A92046B4
:10237C00FFF74AF820B92069FEF7FAFF00B9206090
:10238C0002B010BD2DE9F3410646904605460024E7
:10239C004F1EBC4212DA01AB012269464046FFF7E0
:1023AC00EBFE019B012B09D19DF800300D2BF0D0D9
:1023BC000A2B05F8013B04F10104EAD100239C42ED
:1023CC0014BF304618462B7002B0BDE8F0810000F7
:1023DC0030B50F4B5D7A05F0FF04B5B95D7A5C55ED
:1023EC005D7A03EB85056860587A184402725A7A54
:1023FC00D2B2501CC0B258723A2330324B702F23D9
:10240C000A708B70CC70204630BD012030BD00BFEF
:10241C00640000200022FFF7DBBF000008B5034971
:10242C000348FFF7F7FF034B187008BD7800002036
:10243C000C0000207C0000200020704700B5ADF29D
:10244C00CC4D00220E491AA8FFF750FD98B9012275
:10245C000C49A6A8FFF77EFD68B9A6AA642101A8BD
:10246C00FFF790FFA6A8FFF77CFF01224FF4005165
:10247C000548FEF7F1F90DF2CC4D5DF804FB00BFF9
:10248C00A32C0008972C00080018024030B595B01A
:10249C003022002108A800F09DFB0021142203A883
:1024AC0000F098FB00241D4B01941A6C42F08052F2
:1024BC001A641B6C03F080530193019B184B02941C
:1024CC001A6842F440421A601B680F9403F44043AC
:1024DC000293029B01230B9310230C93082310935C
:1024EC00B4230225119308A80423139308950E9581
:1024FC001295FEF7F3F9FEF7B5F90F2303934FF49A
:10250C00A053069305214FF4805303A8049505941A
:10251C000793FEF793FB15B030BD00BF00380240A7
:10252C000070004000B589B0FEF70EF82C4800F0A2
:10253C00DFFAFFF7ABFF1422002103A800F04AFBDF
:10254C000024284B01941A6B274842F001021A63AD
:10255C001A6B02F001020192019A02941A6B42F07A
:10256C0040021A631B6B03F04003029322461021B6
:10257C00029BFEF771F922464FF400511B48FEF7FF
:10258C006BF90125102303A91748039304950594AF
:10259C000694FEF775F84FF4005303A91348039300
:1025AC00049505940694FEF76BF8FFF737FF104877
:1025BC00104A84604FF4827380E80C004FF400736F
:1025CC0083610823C3610A23C362C460046144614C
:1025DC00046244628462FEF722FCFFF72FFFFEE7E1
:1025EC00A12C0008003802400000024000180240F4
:1025FC00E00400200030014007B58DF807000848C2
:10260C00FEF7EFFD01280246F9D14FF47A730DF174
:10261C0007010348FEF740FC03B05DF804FB00BF64
:10262C00E0040020002210210148FEF715B900BF7C
:10263C0000000240012210210148FEF70DB900BF35
:10264C00000002401FB5FF238DF80E3000238DF8DB
:10265C000F300A48FEF7C5FD01280346F9D14FF4A7
:10266C007A7200920DF10E010DF10F020348FEF784
:10267C00BCFC9DF80F0005B05DF804FBE0040020E5
:10268C0070B505460C4641F28836FFF7DBFFFF2894
:10269C0011D0013EF9D1FF2070BD482D14BF002090
:1026AC008720FFF7A9FF0824FFF7CCFF030617D5F7
:1026BC00013CF9D170BD2846FFF79EFF200EFFF7B5
:1026CC009BFFC4F30740FFF797FFC4F30720FFF706
:1026DC0093FFE0B2FFF790FF402DDED19520E0E7AD
:1026EC0070BD70B504460D468026FFF7ABFFFF2882
:1026FC0004D1013EF9D170BD1D46F5E7FE280ED17F
:10270C0004F50076FFF79EFF04F8010BB442F9D1F3
:10271C00FFF798FFFFF796FF2B1F002DECD170BD34
:10272C002DE9F743794D044638232846EB61FEF733
:10273C0076FB1CB1012003B0BDE8F083744B1A7812
:10274C0012F0020F1E4602D01878C0B2F3E7012037
:10275C00FDF726FFFFF76EFF0A24FF20FFF74CFF63
:10276C00013CFAD1FFF75EFF21464020FFF788FFBE
:10277C0080270446012C7AD1664800F0B9F9FFF79E
:10278C0059FF012CD6D1FF20FFF736FFFFF74AFF88
:10279C004FF4D5714820FFF773FF012840F0878074
:1027AC005D4800F0A5F900240DF10408FFF74AFF7D
:1027BC0008F804000134042CF8D19DF80630002BE5
:1027CC0043D05648DFF8589100F092F9FFF732FFEA
:1027DC00FF20FFF711FFFFF725FF80240021772052
:1027EC00FFF74EFF01285CD8FFF724FFFF20FFF70F
:1027FC0003FFFFF717FF4FF080416920FFF740FF01
:10280C0000283BD1464800F073F9FFF713FFFF2077
:10281C00FFF7F2FEFFF706FF00217A20FFF730FFEB
:10282C00044690B93F4800F063F9FFF70BFF08F836
:10283C0004000134042CF8D19DF8043013F0400F3F
:10284C00394B14BF062202221A70FFF7F3FEFFF772
:10285C00F9FE354B1B781BB1337803F0FE03337054
:10286C0008232A48EB61FEF7DAFA30786DE7FFF7B8
:10287C00E9FE013F04467FF47DAF80E78027FFF738
:10288C00E1FE88B9484600F033F9FFF7D3FEFF208C
:10289C00FFF7B2FEFFF7CEFEFF20FFF7ADFEFFF70E
:1028AC00C1FE013C9AD1B5E7013FE8D1F2E7002126
:1028BC007720FFF7E5FE012806D800216920FFF7F5
:1028CC00DFFE012898BF0224174B4CF250371C70C6
:1028DC001C4600217720FFF7D3FE012810D80021D9
:1028EC006920FFF7CDFE08B1013FF2D14FF4007122
:1028FC005020FFF7C5FE0028A7D000232370A4E7C3
:10290C000528F1D100214120EBE700BFE0040020B5
:10291C0070000020A42C0008B12C0008BE2C00086C
:10292C00CC2C0008DD2C00087100002018B9034BDA
:10293C001878C0B270470120704700BF70000020AB
:10294C0037B50D461446019358BB53B3174B1B7840
:10295C00DB0728D4FFF766FE019B012B214611D122
:10296C005120FFF78DFE18B901A92846FFF7B9FED3
:10297C00FFF760FEFFF766FE0198003018BF0120DC
:10298C0003B030BD5220FFF77BFE04460028EFD188
:10299C0001A92846FFF7A5FE21464C20FFF770FE43
:1029AC00E6E70420ECE70320EAE700BF7000002014
:1029BC00002070470020704782B00C4B0021009122
:1029CC005A6C42F480425A645A6C02F4804200926F
:1029DC00009A01911A6C42F080521A641B6C03F03D
:1029EC0080530193019B02B0704700BF0038024036
:1029FC0010B5044688B01422002103A800F0EAF8B0
:102A0C002268144B9A4222D103F5843300210191A0
:102A1C005A6C114842F480525A645A6C02F4805237
:102A2C000192019A02911A6B42F001021A631B6B1C
:102A3C0003F001030293029BE0230393022304930C
:102A4C000323069303A905230793FDF719FE08B08A
:102A5C0010BD00BF00300140000002407047FEE78F
:102A6C00FEE7FEE7FEE7704770477047FDF786BD4F
:102A7C0010B500234FF06044934201DB104610BDAB
:102A8C00D4F8800EC00703D5D4F8000EC00702D4CA
:102A9C000133F1E700BF20680028FBD0C85C207030
:102AAC00F6E700000F49D1F8883043F47003C1F801
:102ABC0088300D4B1A68002042F001021A609860B1
:102ACC001A6822F0847222F480321A60074A5A6023
:102ADC001A6822F480221A60D8604FF000638B6071
:102AEC00704700BF00ED00E00038024010300024B9
:102AFC0038B50546FDF774FB29460246044601200D
:102B0C00FFF7B6FF0122054605491046FFF7B0FF57
:102B1C0001342844001B18BF4FF0FF3038BD00BFF4
:102B2C00A22C0008FFF7FCBDFFF700BFFFF708BFA2
:102B3C00FFF73EBFFFF73EBFDFF834D0002103E0C4
:102B4C000C4B5B58435004310B480C4B42189A42C7
:102B5C00F6D30B4A02E0002342F8043B094B9A429D
:102B6C00F9D3FFF79FFF00F011F8FFF7DBFC70477C
:102B7C00000003200C2D0008000000202000002085
:102B8C002000002038050020FEE7000070B50D4E37
:102B9C000D4CA41BA4100025A54209D10B4E0C4CC6
:102BAC0000F020F8A41BA4100025A54205D170BD8F
:102BBC0056F8253098470135EEE756F825309847FA
:102BCC000135F2E7042D0008042D0008042D00083F
:102BDC00082D000802440346934200D1704703F8C5
:102BEC00011BF9E7F8B500BFF8BC08BC9E4670475E
:0C2BFC00F8B500BFF8BC08BC9E4670474E
:102C0800435545414141414345454549494941416C
:102C18004592924F4F4F5555594F554F9C4F9E9F38
:102C280041494F55A5A5A6A7A8A9AAABACADAEAF7B
:102C3800B0B1B2B3B4414141B8B9BABBBCBDBEBF73
:102C4800C0C1C2C3C4C54141C8C9CACBCCCDCECF0F
:102C5800D1D145454549494949D9DADBDCDD49DF68
:102C68004FE14F4F4F4FE6E8E85555555959EEEFAC
:102C7800F0F1F2F3F4F5F6F7F8F9FAFBFCFDFEFFD4
:102C8800222A2B2C3A3B3C3D3E3F5B5D7C7F004833
:102C9800656C6C6F2E747874000A0A00434D4430DA
:102CA800207375636365737300434D4438207375EF
:102CB8006363657373003078314141206D617463DB
:102CC80068656400434D4435352F3431207375638E
:102CD8006365737300434D443538207375636365CA
:102CE80073730000000000000000000102030406E6
:042CF80007080900C0
:082CFC0030D5FF7F010000004C
:042D0400D1010008F1
:042D0800AD01000811
:102D0C0001000000100000000024F400312B00082A
:102D1C00352B0008392B00083D2B0008412B0008EF
:0400000508002B457F
:00000001FF
